{
  "_format": "hh-sol-artifact-1",
  "contractName": "Score",
  "sourceName": "contracts/Score.sol",
  "abi": [
    {
      "inputs": [],
      "stateMutability": "nonpayable",
      "type": "constructor"
    },
    {
      "anonymous": false,
      "inputs": [
        {
          "indexed": false,
          "internalType": "uint256",
          "name": "_newScore",
          "type": "uint256"
        }
      ],
      "name": "NewScore",
      "type": "event"
    },
    {
      "inputs": [
        {
          "internalType": "uint256",
          "name": "_reward",
          "type": "uint256"
        }
      ],
      "name": "calculateScoreBonus",
      "outputs": [
        {
          "internalType": "uint256",
          "name": "",
          "type": "uint256"
        }
      ],
      "stateMutability": "nonpayable",
      "type": "function"
    },
    {
      "inputs": [],
      "name": "getScore",
      "outputs": [
        {
          "internalType": "uint256",
          "name": "",
          "type": "uint256"
        }
      ],
      "stateMutability": "view",
      "type": "function"
    },
    {
      "inputs": [
        {
          "internalType": "uint256",
          "name": "_newScore",
          "type": "uint256"
        }
      ],
      "name": "setScore",
      "outputs": [],
      "stateMutability": "nonpayable",
      "type": "function"
    }
  ],
  "bytecode": "0x608060405234801561001057600080fd5b5033600160006101000a81548173ffffffffffffffffffffffffffffffffffffffff021916908373ffffffffffffffffffffffffffffffffffffffff1602179055506102bb806100616000396000f3fe608060405234801561001057600080fd5b50600436106100415760003560e01c80630d1e70aa14610046578063422beeba14610076578063afd8206714610092575b600080fd5b610060600480360381019061005b9190610188565b6100b0565b60405161006d91906101c0565b60405180910390f35b610090600480360381019061008b9190610188565b6100d0565b005b61009a61016a565b6040516100a791906101c0565b60405180910390f35b6000816000546100c091906101db565b6000819055506000549050919050565b600160009054906101000a900473ffffffffffffffffffffffffffffffffffffffff1673ffffffffffffffffffffffffffffffffffffffff163373ffffffffffffffffffffffffffffffffffffffff16141561016757806000819055507f662a3e04948b2097b9360d7645e3f98178fe39061210ed47600dcac711e6a63060005460405161015e91906101c0565b60405180910390a15b50565b60008054905090565b6000813590506101828161026e565b92915050565b60006020828403121561019a57600080fd5b60006101a884828501610173565b91505092915050565b6101ba81610235565b82525050565b60006020820190506101d560008301846101b1565b92915050565b60006101e682610235565b91506101f183610235565b9250817fffffffffffffffffffffffffffffffffffffffffffffffffffffffffffffffff048311821515161561022a5761022961023f565b5b828202905092915050565b6000819050919050565b7f4e487b7100000000000000000000000000000000000000000000000000000000600052601160045260246000fd5b61027781610235565b811461028257600080fd5b5056fea264697066735822122077945c59195aaf656dfe6b579b0d3b6fb4819abe74b8fd03294a133d364e25a164736f6c63430008000033",
  "linkReferences": {},
  "deployedLinkReferences": {}
}