{
  "_format": "hh-sol-artifact-1",
  "contractName": "VolcanoCoin",
  "sourceName": "contracts/VolcanoCoin.sol",
  "abi": [
    {
      "inputs": [],
      "stateMutability": "nonpayable",
      "type": "constructor"
    },
    {
      "anonymous": false,
      "inputs": [
        {
          "indexed": false,
          "internalType": "uint256",
          "name": "_newSupply",
          "type": "uint256"
        }
      ],
      "name": "SupplyChanged",
      "type": "event"
    },
    {
      "anonymous": false,
      "inputs": [
        {
          "indexed": false,
          "internalType": "address",
          "name": "_receiver",
          "type": "address"
        },
        {
          "indexed": false,
          "internalType": "uint256",
          "name": "_amount",
          "type": "uint256"
        }
      ],
      "name": "TransferSent",
      "type": "event"
    },
    {
      "inputs": [],
      "name": "getBalance",
      "outputs": [
        {
          "internalType": "uint256",
          "name": "",
          "type": "uint256"
        }
      ],
      "stateMutability": "view",
      "type": "function"
    },
    {
      "inputs": [],
      "name": "getTotalSupply",
      "outputs": [
        {
          "internalType": "uint256",
          "name": "",
          "type": "uint256"
        }
      ],
      "stateMutability": "view",
      "type": "function"
    },
    {
      "inputs": [],
      "name": "increaseTotalSupply",
      "outputs": [],
      "stateMutability": "nonpayable",
      "type": "function"
    },
    {
      "inputs": [
        {
          "internalType": "uint256",
          "name": "_amount",
          "type": "uint256"
        }
      ],
      "name": "setBalance",
      "outputs": [],
      "stateMutability": "nonpayable",
      "type": "function"
    },
    {
      "inputs": [
        {
          "internalType": "address",
          "name": "_receiver",
          "type": "address"
        },
        {
          "internalType": "uint256",
          "name": "_amount",
          "type": "uint256"
        }
      ],
      "name": "transferCoins",
      "outputs": [],
      "stateMutability": "nonpayable",
      "type": "function"
    }
  ],
  "bytecode": "0x608060405234801561001057600080fd5b5061271060008190555033600160006101000a81548173ffffffffffffffffffffffffffffffffffffffff021916908373ffffffffffffffffffffffffffffffffffffffff16021790555060005460026000600160009054906101000a900473ffffffffffffffffffffffffffffffffffffffff1673ffffffffffffffffffffffffffffffffffffffff1673ffffffffffffffffffffffffffffffffffffffff168152602001908152602001600020819055506100d86000546100dd60201b6104a81760201c565b6101d9565b610179816040516024016100f191906101b4565b6040516020818303038152906040527ff5b1bba9000000000000000000000000000000000000000000000000000000007bffffffffffffffffffffffffffffffffffffffffffffffffffffffff19166020820180517bffffffffffffffffffffffffffffffffffffffffffffffffffffffff838183161783525050505061017c60201b60201c565b50565b60008151905060006a636f6e736f6c652e6c6f679050602083016000808483855afa5050505050565b6101ae816101cf565b82525050565b60006020820190506101c960008301846101a5565b92915050565b6000819050919050565b6107b4806101e86000396000f3fe608060405234801561001057600080fd5b50600436106100575760003560e01c806312065fe01461005c5780632dba5cfa1461007a578063c4e41b2214610096578063de0f2be1146100b4578063fb1669ca146100be575b600080fd5b6100646100da565b6040516100719190610640565b60405180910390f35b610094600480360381019061008f9190610594565b610143565b005b61009e610337565b6040516100ab9190610640565b60405180910390f35b6100bc610340565b005b6100d860048036038101906100d391906105d0565b6103e8565b005b600060026000600160009054906101000a900473ffffffffffffffffffffffffffffffffffffffff1673ffffffffffffffffffffffffffffffffffffffff1673ffffffffffffffffffffffffffffffffffffffff16815260200190815260200160002054905090565b600160009054906101000a900473ffffffffffffffffffffffffffffffffffffffff1673ffffffffffffffffffffffffffffffffffffffff163373ffffffffffffffffffffffffffffffffffffffff161415610333578060026000600160009054906101000a900473ffffffffffffffffffffffffffffffffffffffff1673ffffffffffffffffffffffffffffffffffffffff1673ffffffffffffffffffffffffffffffffffffffff1681526020019081526020016000205461020691906106b1565b60026000600160009054906101000a900473ffffffffffffffffffffffffffffffffffffffff1673ffffffffffffffffffffffffffffffffffffffff1673ffffffffffffffffffffffffffffffffffffffff1681526020019081526020016000208190555080600260008473ffffffffffffffffffffffffffffffffffffffff1673ffffffffffffffffffffffffffffffffffffffff168152602001908152602001600020546102b6919061065b565b600260008473ffffffffffffffffffffffffffffffffffffffff1673ffffffffffffffffffffffffffffffffffffffff168152602001908152602001600020819055507f8aa89c45e00b1dc8befa3736e4d341042a1cd0021a629920526985a6028f7525828260405161032a929190610617565b60405180910390a15b5050565b60008054905090565b600160009054906101000a900473ffffffffffffffffffffffffffffffffffffffff1673ffffffffffffffffffffffffffffffffffffffff163373ffffffffffffffffffffffffffffffffffffffff1614156103e6576103e86000546103a6919061065b565b6000819055507ff71f9c3841c0bab7774017ffe585aeab36b5438d148506067901d47c5fa6f7e96000546040516103dd9190610640565b60405180910390a15b565b600160009054906101000a900473ffffffffffffffffffffffffffffffffffffffff1673ffffffffffffffffffffffffffffffffffffffff163373ffffffffffffffffffffffffffffffffffffffff1614156104a5578060026000600160009054906101000a900473ffffffffffffffffffffffffffffffffffffffff1673ffffffffffffffffffffffffffffffffffffffff1673ffffffffffffffffffffffffffffffffffffffff168152602001908152602001600020819055505b50565b61053e816040516024016104bc9190610640565b6040516020818303038152906040527ff5b1bba9000000000000000000000000000000000000000000000000000000007bffffffffffffffffffffffffffffffffffffffffffffffffffffffff19166020820180517bffffffffffffffffffffffffffffffffffffffffffffffffffffffff8381831617835250505050610541565b50565b60008151905060006a636f6e736f6c652e6c6f679050602083016000808483855afa5050505050565b60008135905061057981610750565b92915050565b60008135905061058e81610767565b92915050565b600080604083850312156105a757600080fd5b60006105b58582860161056a565b92505060206105c68582860161057f565b9150509250929050565b6000602082840312156105e257600080fd5b60006105f08482850161057f565b91505092915050565b610602816106e5565b82525050565b61061181610717565b82525050565b600060408201905061062c60008301856105f9565b6106396020830184610608565b9392505050565b60006020820190506106556000830184610608565b92915050565b600061066682610717565b915061067183610717565b9250827fffffffffffffffffffffffffffffffffffffffffffffffffffffffffffffffff038211156106a6576106a5610721565b5b828201905092915050565b60006106bc82610717565b91506106c783610717565b9250828210156106da576106d9610721565b5b828203905092915050565b60006106f0826106f7565b9050919050565b600073ffffffffffffffffffffffffffffffffffffffff82169050919050565b6000819050919050565b7f4e487b7100000000000000000000000000000000000000000000000000000000600052601160045260246000fd5b610759816106e5565b811461076457600080fd5b50565b61077081610717565b811461077b57600080fd5b5056fea2646970667358221220b8e239402db528ec473dff2f79d0ededbd85d178e420c9dee00fd84e9e9ad34764736f6c63430008000033",
  "linkReferences": {},
  "deployedLinkReferences": {}
}